:100BCC0002110000020C000102080000020A0000E1
:070BDC00020F0000010E14DE
:100B7700C2A2D292E4FE0EBE1EFCE4FEEF30E704F2
:100B8700D2928002C292D291E4FD0DBD08FCC291BF
:0E0B9700E4FD0DBD08FCEF25E0FF0EBE08DEFC
:010BA500222D
:100B4500C2A2D292E4FE000EBE1EFBE4FED291E4E8
:100B5500FD000DBD08FBEF25E0FF309203430701C3
:100B6500C291E4FD000DBD08FB0EBE08E0C292D2A5
:010B7500A2DD
:010B7600225C
:0A0BF000AC05120B77AF04020B777F
:070BFA00120B77120B4522DC
:100BA600EF4E60217D047C007BFA7A00EB1B70011E
:100BB6001AEB4A70F7ED1D70011CED4C70EAEF1F41
:050BC60070DE1E80DB63
:010BCB002207
:0C0BE400758901758C3C758AB0D2AF2277
:10098F00AB07AA067C007D3C1208DE7E007F0ACFF3
:10099F00CDCFCECCCE1208DE7F80120BF07C007D47
:1009AF003CAF03AE021208DE7E007F0ACFCDCFCE62
:1009BF00CCCE1208DEAD077F81120BF07C007D3CA0
:1009CF00AF03AE021208DE7C007D0A1208DE7F82C2
:1009DF00120BF0AE02AF037C007D3C1208DE7C00F0
:1009EF007D0A1208DEAD077F83120BF0AE0AAF0B44
:1009FF007C007D0A1208DEAD077F85120BF0AE0A70
:100A0F00AF0B7C007D0A1208DE7F84120BF0AE085C
:100A1F00AF097C007D0A1208DEAD077F87120BF04D
:100A2F00AE08AF097C007D0A1208DE7F86020BF04C
:03000B00020ACB1B
:100ACB00C0E0C0F0C0D075D000C000C002C003C0F1
:100ADB0004C005C006C007758C3C758AB0150EAFF7
:100AEB0012AE1112098FE50ED394005038750E1407
:100AFB00E50D450C7016E5129400E51164809480A9
:100B0B00400AE5121512701D15118019E50D450CE3
:100B1B00700DE512451170077F88120B77800685E3
:100B2B001111851212D007D006D005D004D003D0F6
:0A0B3B0002D000D0D0D0F0D0E0329C
:100800007FA4120B777F327E00120BA6D28CD2A966
:1008100079FFD293120BE42093FD7F15120BFAA9F6
:1008200007E912091408D12608BD2708B52C08AE1F
:100830002D08A12E089D2F0893340886350882368E
:10084000087837086E3C08613D085D3E08533F005C
:100850000008D60509E50970020508807974028050
:100860000274032509F509E43508F5088068E509EF
:10087000150970621508805E050BE50B7058050AB6
:100880008054740280027403250BF50BE4350AF5DD
:100890000A8043E50B150B703D150A8039743C80C6
:1008A00002741E2512F512E43511F5118028E4F5C5
:1008B0000CF50D8021750C00750D01801985080F50
:1008C000850910850A08850B09850F0A85100B809C
:0E08D000057FA4120B7730930302081780F8FF
:03000000020A3FB2
:0C0A3F00787FE4F6D8FD758112020A866B
:1008DE00C2D5EC30E709B2D5E4C39DFDE49CFCEE35
:1008EE0030E715B2D5E4C39FFFE49EFE12093AC36A
:1008FE00E49DFDE49CFC800312093A30D507C3E465
:06090E009FFFE49EFE22A3
:10091400D083D082F8E4937012740193700DA3A372
:1009240093F8740193F5828883E473740293686086
:06093400EFA3A3A380DF86
:100A4B00020800E493A3F8E493A34003F68001F2B9
:100A5B0008DFF48029E493A3F85407240CC8C333AC
:100A6B00C4540F4420C8834004F456800146F6DF7B
:100A7B00E4800B0102040810204080900BCCE47E34
:100A8B00019360BCA3FF543F30E509541FFEE49370
:100A9B00A360010ECF54C025E060A840B8E493A337
:100AAB00FAE493A3F8E493A3C8C582C8CAC583CA62
:100ABB00F0A3C8C582C8CAC583CADFE9DEE780BE1A
:010BE3000011
:10093A00BC000BBE0029EF8DF084FFADF022E4CCA1
:10094A00F875F008EF2FFFEE33FEEC33FCEE9DEC6A
:10095A00984005FCEE9DFE0FD5F0E9E4CEFD22EDB0
:10096A00F8F5F0EE8420D21CFEADF075F008EF2FFA
:10097A00FFED33FD4007985006D5F0F222C398FDEB
:05098A000FD5F0EA2288
:00000001FF
